:020000040000FA
:1000000068020020BD020000C5020000C702000017
:10001000C9020000CB020000CD0200000000000079
:10002000000000000000000000000000CF020000FF
:10003000D102000000000000D3020000D502000041
:10004000D7020000D9020000DB020000DD02000040
:10005000DF0200008D1B0000E3020000E50200004B
:10006000E7020000E9020000EB020000ED020000E0
:10007000EF020000F1020000F3020000F5020000B0
:10008000F7020000F9020000FB020000FD02000080
:10009000FF0200000103000003030000050300004D
:1000A00007030000090300000B0300000D0300001C
:1000B0000F030000110300001303000015030000EC
:1000C00017030000190300001B0300001D030000BC
:1000D0001F0300002103000023030000250300008C
:1000E00027030000290300002B0300002D0300005C
:1000F0002F0300003103000033030000350300002C
:1001000037030000390300003B0300003D030000FB
:100110003F030000410300004303000045030000CB
:1001200047030000C51B00004B0300004D03000007
:100130004F0300005103000053030000550300006B
:1001400057030000590300005B0300007503000023
:1001500000000000000000007703000079030000A9
:100160007B0300007D030000000000007F0300000F
:100170008103000083030000850300008703000063
:10018000890300008B0300008D0300008F03000033
:100190009103000093030000950300009703000003
:1001A000990300009B0300009D0300009F030000D3
:1001B000A1030000A3030000A5030000A7030000A3
:1001C000A9030000AB030000AD030000AF03000073
:1001D000B1030000B3030000B5030000B703000043
:1001E000B9030000BB030000BD030000BF03000013
:1001F000C1030000C3030000C5030000C7030000E3
:1002000000F002F800F04AF80AA090E8000C8244DE
:100210008344AAF10107DA4501D100F03FF8AFF2BB
:10022000090EBAE80F0013F0010F18BFFB1A43F0D4
:1002300001031847F830000018310000103A24BFBD
:1002400078C878C1FAD8520724BF30C830C144BF3B
:1002500004680C607047000000230024002500267D
:10026000103A28BF78C1FBD8520728BF30C148BF19
:100270000B6070471FB502F0EFFE01F001F90400BA
:100280000020002102F0E0FC401C60600020002102
:1002900002F0C4FCE0601FBD10B510BD01F0C3F852
:1002A0001146FFF7E7FF01F01FFE01F077F903B4F5
:1002B000FFF7F2FF03BC01F0F5FB00004548804763
:1002C00045480047FEE7FEE7FEE7FEE7FEE7FEE7FC
:1002D000FEE7FEE7FEE7FEE7FEE7FEE7FEE7FEE7F6
:1002E000FEE7FEE7FEE7FEE7FEE7FEE7FEE7FEE7E6
:1002F000FEE7FEE7FEE7FEE7FEE7FEE7FEE7FEE7D6
:10030000FEE7FEE7FEE7FEE7FEE7FEE7FEE7FEE7C5
:10031000FEE7FEE7FEE7FEE7FEE7FEE7FEE7FEE7B5
:10032000FEE7FEE7FEE7FEE7FEE7FEE7FEE7FEE7A5
:10033000FEE7FEE7FEE7FEE7FEE7FEE7FEE7FEE795
:10034000FEE7FEE7FEE7FEE7FEE7FEE7FEE7FEE785
:10035000FEE7FEE7FEE7FEE7FEE7FEE7FEE7FEE775
:10036000FEE7FEE7FEE7FEE7FEE7FEE7FEE7FEE765
:10037000FEE7FEE7FEE7FEE7FEE7FEE7FEE7FEE755
:10038000FEE7FEE7FEE7FEE7FEE7FEE7FEE7FEE745
:10039000FEE7FEE7FEE7FEE7FEE7FEE7FEE7FEE735
:1003A000FEE7FEE7FEE7FEE7FEE7FEE7FEE7FEE725
:1003B000FEE7FEE7FEE7FEE7FEE7FEE7FEE7FEE715
:1003C000FEE7FEE7FEE7FEE704480549034A054B62
:1003D00070470000691B0000010200006800002057
:1003E00068020020680000200FB400B58DB010A98D
:1003F000099000910B904FF0FF300A9000200C9074
:10040000064878440690064878446A4607900F9953
:1004100009A800F0D1F90DB05DF814FBD30300007A
:10042000EB0300007047704770472DE9FF4F1C46F3
:1004300091464FF0FF3581B000218A468846D4E9C5
:100440000167A16902986D1C8847216A8346884725
:100450000028F6D1BBF1FF3F0CD0002F26F4C06678
:100460001ADD700615D5BBF12B0F0AD0BBF12D0F8D
:100470000FD104E04FF0FF3005B0BDE8F08F46F437
:100480008066A16902986D1C88477F1E8346002FF5
:1004900002DDBBF1300F03D0B9F1000F2AD025E007
:1004A000A1696D1C02987F1E46F400768847002FD4
:1004B000834605DDBBF1780F06D0BBF1580F03D0A2
:1004C000B9F1000F10D011E0B9F1000F02D0B9F16D
:1004D000100F0BD1A1696D1C02987F1E26F40076C7
:1004E00088478346102000E0082081464FEAE970E3
:1004F000009017E00A20F8E74346AAFB0928DDF838
:1005000000C07F1E03FB098046F4007605F101055B
:100510000AFB0C0112EB0B0A029841EBEB78A16984
:1005200088478346002F06DD4946584600F0E3FA27
:100530005FEA000BE0D5E16902988847B00502D474
:100540006FF0010098E7F00718D1700610D55146FA
:10055000700505D50023D1EB030163EB080200E031
:1005600042462068031D23600068C0E9001205E0D0
:100570002068011D21600068C0E900A828467BE7CB
:100580002DE9FF5F1D464FF0FF3B91464FF00008FD
:100590005F46D5E90146A96901987F1C8847296A09
:1005A000824688470028F6D1BAF1FF3F0CD0002ED2
:1005B00024F4C06419DD600614D5BAF12B0F09D0FC
:1005C000BAF12D0F0ED103E0584604B0BDE8F09FFC
:1005D00044F48064A96901987F1C8847761E82468E
:1005E000002E02DDBAF1300F03D0B9F1000F26D092
:1005F00032E0A969761E01987F1C44F40074884794
:10060000002E824605DDBAF1780F06D0BAF1580FF8
:1006100003D0B9F1000F10D01EE0B9F1000F02D0E5
:10062000B9F1100F18D1A969761E01987F1C24F426
:10063000007488478246102002E0082000E00A206B
:10064000814609E0A96908FB0908761E01987F1C0C
:1006500044F4007488478246002E05DD4946504622
:1006600000F049FA0028EDDAE96901988847A00509
:1006700002D46FF00100A8E7E00725D1600613D58A
:10068000600502D5C8F1000000E0404629680A1D57
:100690002A600968220501D5087015E0220701D5F6
:1006A000088011E008600FE02868011D29600068DB
:1006B000210502D580F8008006E0210702D5A0F8C8
:1006C000008001E0C0F8008038467EE72DE9FF5F3A
:1006D0004FF000089946144646469169D2E901A7B1
:1006E000DDF838B001988847054659EA0B0005D077
:1006F00009E0A1690198761C88470546216A2846C9
:1007000088470028F5D1681C03D05FEACA7005D07D
:1007100015E04FF0FF3004B0BDE8F09F2068011DE8
:100720002160D0F800800AE05FEACA7001D108F8C1
:10073000015BA169761C01987F1E88470546002F42
:100740001ADD681C18D0B9F1000F0DD0E81705EBC1
:10075000D060421120F01F0059F822102A1A0120FF
:1007600090400142E0D107E0BBF1000FDCD1284608
:10077000216A88470028D7D0E16901988847BBF1F2
:10078000000F07D1002E05DD5FEACA7002D10021FB
:1007900088F80010A068B84203DDBBF1000F03D059
:1007A00017B16FF00100B6E73046B4E702681144B4
:1007B0001378016018467047D1600549794451614A
:1007C00004497944116200211161114600F0A2B977
:1007D000EDFFFFFF1F030000426842B1016811F8FE
:1007E000013B23B1521EC0E9001218467047012197
:1007F000C160881E704742685AB1C368016843B936
:1008000083688B4205D0491E521CC0E900120020AB
:1008100070474FF0FF3070472DE9FF4F4FF0000851
:100820009A461446C146464683B0D2E901B7CDF890
:100830000080CDF804809169049888471099054696
:100840005AEA010005D009E0A1690498761C88479E
:100850000546216A284688470028F5D1681C03D040
:100860005FEACB7005D02AE04FF0FF3007B0BDE85B
:10087000F08F2068011D2160D0F800801FE002A8E1
:100880006A46E9B200F08BFD411C07D0801C09D0FC
:100890004FF000095FEACB7007D00AE0E1690498E5
:1008A00088473EE04FF0010904E0BDF8081028F841
:1008B000021B7F1EA1690498761C88470546002FFD
:1008C0001ADD681C18D0BAF1000F0DD0E81705EB3F
:1008D000D060421120F01F005AF822102A1A01207D
:1008E00090400142CBD107E010980028C7D128469C
:1008F000216A88470028C2D0E16904988847B9F185
:10090000000F0ED1109830B9002E04DD5FEACB70D5
:1009100001D1A8F80000A068B84202DD109818B113
:1009200017B16FF00100A1E730469FE72DE9FF4FB7
:100930004FF000089B461446454683B0D2E9019625
:10094000CDF80080CDF804809169DDF848A00498C6
:10095000884707465BEA0A0005D009E0A1690498C8
:100960006D1C88470746216A384688470028F5D11C
:10097000781C03D05FEAC97005D01BE04FF0FF3050
:1009800007B0BDE8F08F2068011D2160D0F800801D
:1009900010E05FEAC97007D16A464046B9B200F07C
:1009A0001EFD411C31D08044A1696D1C0498761E47
:1009B00088470746002E14DD781C12D0BBF10000DA
:1009C00007D03B46DDE9101200F0DAFC0028E0D148
:1009D00007E0BAF1000FDCD13846216A88470028C9
:1009E000D7D0E16904988847BAF1000F06D1002DED
:1009F00004DD5FEAC97001D188F80000A068B04248
:100A000003DDBAF1000F03D016B16FF00100B7E7B4
:100A10002846B5E72DE9FF5F9B46144600273D4673
:100A20009169D2E90196DDF840A001988847804697
:100A30005BEA0A0005D009E0A16901986D1C8847AE
:100A40008046216A404688470028F5D1B8F1FF3F2B
:100A500003D05FEAC97005D014E04FF0FF3004B056
:100A6000BDE8F09F2068011D216007680AE05FEA89
:100A7000C97001D127F8028BA1696D1C0198761EFF
:100A800088478046002E15DDB8F1FF3F12D0BBF13C
:100A9000000007D04346DDE90E1200F071FC00288B
:100AA000E5D107E0BAF1000FE1D14046216A88475D
:100AB0000028DCD0E16901988847BAF1000F05D120
:100AC000002D03DD5FEAC97000D13880A068B04214
:100AD00003DDBAF1000F03D016B16FF00100BEE7DD
:100AE0002846BCE710B5044600F0C2FC0068005D73
:100AF00000F0010010BD3A2800D2303820F020026A
:100B0000412A01D3A2F13700884201D34FF0FF30D0
:100B1000704700002DE9F34F4FF0000A0C4656468F
:100B20008DB001200C9001F10C000B9062690B98C4
:100B300001219047051E2DD0252D2CD0216A8847F4
:100B4000C0B162690B9801219047216A884700284B
:100B5000F7D16269411E0B98904700E0761CA169AD
:100B60000D988847216A88470028F7D1E1690D98D8
:100B70008847DBE7A1690D988847A842074601D15D
:100B8000761CD3E7E1690D9888477F1C02D1BAF142
:100B9000000F6FD06BE162690B9800273D46394624
:100BA00090472A2804D162690B98012190470125BA
:100BB000DFF8D08262690B9801219047A0F13001E3
:100BC0000A290AD24745E5DC07EB870100EB41071C
:100BD000303FDFD445F01005ECE7E90601D46FF0B3
:100BE00000476C280AD04C2814D0682815D06A28F1
:100BF0000DD074281CD07A281AD01DE062690B9899
:100C0000012190476C2802D045F0040514E045F01E
:100C100002050DE045F020050AE062690B9801210C
:100C20009047682802D045F0080505E045F40065C6
:100C300062690B9801219047C4E9015765283DD0AE
:100C400019DC58287AD00CDC452837D004DC25285C
:100C500026D041289ED131E046282FD0472899D16F
:100C60002CE05B2877D0612828D063287CD06428CA
:100C700023D15AE0F6E06F2848D008DC66281DD062
:100C800067281BD0692821D06E2816D127E070284C
:100C900045D0732868D0752847D078280DD14DE00D
:100CA000A1690D988847252805463FF469AFE16999
:100CB0000D9888476D1C3FF46AAFD8E00D99234624
:100CC0006A466FF0010002F03CFAC5E045F04000D2
:100CD00023464FF000026060A80736D43EE0E807E4
:100CE0007FF447AF2068011D21600068290501D508
:100CF00006701BE7290701D5068017E7A90703D56A
:100D0000F117C0E9006111E706600FE745F0400008
:100D100023464FF008026060A80716D41EE040F694
:100D20000E0125EA0100606016E045F04000234610
:100D30004FF00A026060A80707D40FE045F04000BA
:100D40006060A80708D5234610220D996FF00100B6
:100D5000FFF76BFB80E007E0102223460D996FF050
:100D60000100FFF70DFC77E04FF0000963284F46C4
:100D7000C8464B46CB4602D05B2806D038E0E80692
:100D800001D40120A060012732E06269D4F80CB0E0
:100D90000B98012190475E2807D14FF00109494681
:100DA0006269D4F80CB00B989047216939B90021D9
:100DB0000A4603AB43F82120491C0829FADBD8B3C3
:100DC000216949B308F1010862690B980121904734
:100DD0005D28F4D1B9F1000F09D0002003A951F822
:100DE0002020D24341F82020401C0828F7DB03AB29
:100DF0002069002820794FEA40701ED05B462246C9
:100E0000CDF80080CDE901970D9900286FF0010021
:100E100020DAFFF7FFFD1FE0C11703AA00EBD16145
:100E20004B1121F01F0102EB8302411A13680120CC
:100E3000884003431360C7E719E00D992246002854
:100E40006FF00100009702DAFFF7E6FC04E0FFF71D
:100E50003DFC01E0FFF76AFD00280ADA401C06D1DC
:100E60000C9820B14FF0FF300FB0BDE8F08F504626
:100E7000FAE7E90701D10AF1010A064400200C90C3
:100E800054E60000CCCCCC0C2DE9FF4F06468BB0CD
:100E90000878FF2806D0491C2D2805D000244FF0E3
:100EA000000908E000200CE00124F8E709EB8903C1
:100EB000491C00EB43090878FF28F7D114B1C9F1A8
:100EC00000008146107800252C46AA4629462D2888
:100ED00001D02B2804D1521C2D2813D0002082468B
:100EE0008B461078FF280FD04FF0000C0A21521CBF
:100EF000A5FB017804FB018105FB0C11C5194BEB27
:100F00000104EEE70120EAE7002108464FF0000067
:100F1000BAF1000F02D000EB80004008C0F3815707
:100F2000012F01DD4FF0FF370E9955EA040009EB60
:100F300001080BD04FF0020918F5FA7F16DA4FEAD4
:100F4000CA70002F706008DD012007E04FEACA7008
:100F5000C6E900B00FB0BDE8F08F0020306000F0AF
:100F600093FAC0F800901821084616E0B8F5FA7F09
:100F700018DD002F02DAF748784401E0F64878449B
:100F8000D0E90010C6E9001040EACA70706000F0B5
:100F90007BFAC0F80090142108460FB0BDE8F04F6E
:100FA00002F06CB8002108464FF00000B8F10001D3
:100FB000099002DAC7F1000200E03A4601DAC8F10E
:100FC000000106A800F078FA06AB93E8070003AB2F
:100FD00083E8070044F23E005BEA040100905846B3
:100FE00004D144F21E012C465D460091210C0904F7
:100FF000014306D10099240444EA15442D04103914
:10100000009104F07F41014306D10099240244EA93
:1010100015642D020839009104F07041014306D196
:101020000099240144EA15742D01091F009104F070
:101030004041014306D10099A40044EA9574AD00F3
:10104000891E009104F00041084304D100986D19F5
:101050006441401E00904FF001033A466846B8F1E3
:10106000000FCDE9014503A902DD01F038FB01E0E5
:1010700001F00BFBBAF1000F04460D4601D084F0DD
:101080000044002108464FF00000099940F2FF7724
:10109000484010F00C0F07D124F00040284303D043
:1010A000C4F30A50B84212D100F0EEF9C0F8009033
:1010B000C4F30A50B8420AD1A8487844D0E90010D5
:1010C000C6E9001004F000410843706042E7C6E939
:1010D00000543FE72DE9FF4F1F464FF0000A4FF045
:1010E000FF38454691B0D7E90146CDF83CA000F065
:1010F000C7F9C0680168405C1090B96912986D1C0E
:101100008847396A814688470028F6D1B9F1FF3F00
:101110000AD0002E24F4D06411DDB9F12B0F08D0D1
:10112000B9F12D0F0BD102E0404615B013E744F49E
:101130008064B96912986D1C8847761E81466005E7
:1011400004A901D52D2000E02B20002E01F1010B78
:101150000DF130088DF810003FDDB9F1690F08D0AE
:10116000B9F1490F05D0B9F16E0F02D0B9F14E0FA8
:101170001CD13B4601A8009580E85002DDE912121F
:101180006FF0020001F0E1FFC11CCED10EE0B969A1
:1011900012986D1C884781461398761E44F400749B
:1011A00005600F98401C002E0F9016DDB9F1300F2E
:1011B000EDD0B9F1780F02D0B9F1580F0DD10F98D9
:1011C00001280AD13B46CDE90054DDE91212001F87
:1011D000029601F0B8FFC11CA7D1109989453ED1F4
:1011E00044F0800406E01399681CAAF1010A44F453
:1011F00000740860B9696D1C1298761E8847302803
:101200008146F0D02BE01099894505D1200603D402
:10121000761E44F0800418E0484601F0B0FC08B3A4
:10122000761E0DF123029345A9F1300044F40074B9
:1012300006D20BF8010B200607D5AAF1010003E046
:10124000200602D40AF101008246A00502D51399B6
:10125000681C0860B96912986D1C88478146002E89
:10126000D1DC53E0002E51DDB9F1650F02D0B9F1A8
:10127000450F4BD1A00549D5B9696D1C1298761E52
:1012800024F440748847002E81460CDD2B2804D0BE
:10129000B9F12D0F07D144F48074B96912986D1C0F
:1012A0008847761E8146E00501D52D2100E02B21DF
:1012B00008F8011BCDF8008021E0761E0DF1390100
:1012C000884544F400740CD2A9F1300010F0FF00FE
:1012D00088F8000002D10099884509D908F1010871
:1012E00006E0E00501D51E4801E042F20F7082469B
:1012F000B96912986D1C8847814613980560002EC5
:1013000004DD484601F03BFC0028D6D1F96912986B
:101310008847FF2053468BF8000088F80000002023
:101320000A900B9004AA0CA90AA8FFF7ADFDA0052E
:1013300002D46FF00100F8E614F0240F12D0E00799
:101340001CD13868DDE90A12031D3B600068C0E962
:10135000001213E0D8230000CA2300008E220000F0
:10136000F1D8FFFF0AA9684601F0F6FBE00705D1B6
:101370003868009A011D3960006802602846D4E68A
:1013800010B508E030F8024B9C4204D10AB10020AD
:1013900010BD012010BD491EF4D2104610BDF8B595
:1013A00016460C46054600F063F8036893F8010101
:1013B000012804D0185D78B101202C80F8BDD3F845
:1013C00003013246214603F20313C718684600237F
:1013D000B84700992980F8BD4FF0FF30F8BD2DE9DE
:1013E000F04116460C46054600F042F8036893F8B3
:1013F0000101012807D0FF2C12D8185D80B101200F
:101400002C70BDE8F081D3F807013246214603F283
:101410000713C7182846BC46BDE8F04100236047C3
:101420004FF0FF30EDE7754600F0C2F8AE4605001C
:101430006946534620F00700854618B020B5FEF7F0
:10144000C3FFBDE820404FF000064FF000074FF00B
:1014500000084FF0000BAC46ACE8C009ACE8C0098E
:10146000ACE8C009ACE8C00921F007018D4670471F
:1014700010B500F005F8001D10BD00BFCD1700002D
:1014800000487047280000200048704708000020EE
:10149000B2F120030AD5C2F1200301FA02F120FAC9
:1014A00003F341EA030100FA02F0704700FA03F186
:1014B0004FF00000704700002DE9F04781461646C6
:1014C0008AB0354878440DC88DE80D00324878441C
:1014D000801C03AC0DC884E80D0041F69B30084425
:1014E000372190FBF1F290FBF1F5A5F1800501FBAE
:1014F00012041B3C02D56442012000E00020DFF80A
:1015000098A080460027FA44AAF1BE0A0EE0E00740
:101510000AD03246684607EB470101230AEB8101F6
:1015200001F0C8F88DE8070064107F1C002CEED194
:10153000194F7F44AE3F19E0E80715D007EB0410C0
:101540000DF1180A90E80E008AE80E00C068F0421B
:1015500001D1981908903246012306A903A801F089
:10156000A9F803AB83E807006D10641C002DE3D1DC
:101570004FF0010332466946B8F1000F03A802D0CC
:1015800001F06EF801E001F095F8C9E90001C9F831
:1015900008200AB0BDE8F087341D000010B50446ED
:1015A000AFF300802046BDE81040FEF780BE00008B
:1015B000004870470800002010B5FFF765FF00687D
:1015C00010BD10B50446FFF75FFF046010BD0000BA
:1015D0002DE9FF4F1F464FF03C0987B04FF0004206
:1015E000DDE9141001F10108DDF858A002EA4050CD
:1015F0000390002005908346054604460490B9698F
:10160000461E08988847AAF1010A0290BAF1000F15
:101610003BDD02982E2815D01021FFF76CFA002828
:101620002EDB4FF0010B0599014317D0B9F1000FE4
:101630000BDB4A46C117FFF72BFF05430C43A9F10B
:10164000040905E0012004900BE008B145F0010514
:1016500001200590049820B9361D02E0049800B1DD
:10166000361FB969089808F101088847BBF1000FD7
:10167000AAF1010A0290C9D00999C1F80080C5E712
:101680000298702808D0502806D0F9690898884731
:10169000BBF1000F14D04FE0002002900120BBF1FD
:1016A000000F049009D0B969089808F1010888472B
:1016B000AAF10109B9F1000F07DCF9690898884718
:1016C0006FF001000BB0BDE8F08F2B2804D02D285F
:1016D0000CD14FF0FF300490B969089808F1010867
:1016E0008847A9F10109B9F1000FE6DD411CE4D0FA
:1016F0000A21FFF700FA0028DFDB029908F1010850
:1017000001EB810100EB41000290B969089888471C
:101710000A21FFF7F0F9099AA9F10109B9F1000FBF
:10172000C2F8008001DD0028E7DAF96908988847E7
:101730000499029800FB016655EA040004D004F005
:101740004041090002D006E0039898E0A40044EA72
:101750009574AD00B61E04F00041080002D16D1969
:101760006441761E159810F0240F03D04FF00B093A
:101770005C4803E04FF028096FF07D008246564533
:1017800007DAAAEB06018944B9F1410F01DD4FF0F8
:10179000410901200021A9F10102FFF779FE02466B
:1017A00028400B462140084301D0012100E00021E0
:1017B000501E029143F1FF3128402140084301D0DF
:1017C000012000E000200299834651EA0B014FD02E
:1017D000002108464FF00000039900F4400039B1A1
:1017E00000EB80004FF4400100EBD07001EA600094
:1017F0008015012802DD4FF0FF3000E013D0401CBF
:1018000036D0029860B3BBF1000F0CD14A460120DC
:101810000021FFF73DFE28402140084301D0012070
:1018200000E00020E0B101204A460021FFF730FE31
:10183000034640190A4661412D1A8C4111D3B9F172
:10184000400F09DD159810F0240F02D0AAF13406DC
:1018500003E0AAF1170600E0761C00254FF00044D3
:1018600006E05B1E42F1FF3220EA030521EA020492
:10187000CAF10100B04206DA1B49039808430190FF
:10188000002000900EE0039AC4F3D321E80A0A4333
:10189000164940EA44500A433146CDE90002684601
:1018A00001F063F9159810F0240F0BD01598C007BC
:1018B00015D13868DDE90012031D3B600068C0E9FE
:1018C00000120CE002A8694601F046F91598C0071D
:1018D00005D13868029A011D3960006802604046EF
:1018E000F0E6000002FCFFFF0000F07F0000F03F88
:1018F0002DE9FF4F92461D4685B04FF00041DDE9CE
:10190000124BDDE914727F1E01EA4B50414940F051
:10191000FF4940EA0108002122F0200049280491F3
:1019200002D04E2828D04CE03BA0012607C88DE805
:101930000700A9690698641C88477F1E014606D4E3
:101940001DF8060018B121F0200181420BD0E96991
:1019500006988847032E34D0082E32D06FF001004D
:1019600009B0BDE8F08F761C032E01D0082EE0D11F
:10197000601CCAF80000DCE7A9690698641C884767
:101980007F1E2AD420F02000412826D1A96906987C
:10199000641C88477F1E20D420F020004E281CD1D4
:1019A000A9690698641C88477F1E48F4002849F4FA
:1019B0008009CAF8004001D4282806D0E9690698B1
:1019C00088475FEACB7012D022E0A9690698641CB0
:1019D00088477F1E01D4002803DAE9690698884702
:1019E000BCE72928F1D1641CCAF80040E9E71BF0E4
:1019F000240F07D028680499031D2B600068C0E9F4
:101A0000001805E02868021D2A600068C0F80090F0
:101A10002046A5E70000F07F494E46494E495459FB
:101A2000000000000000000030B44FF0013C50F80E
:101A3000042B51F8043BCCFA52F4D51A20D1FCB94E
:101A400050F8042B51F8043BCCFA52F4D51A17D1B4
:101A5000B4B950F8042B51F8043BCCFA52F4D51A1F
:101A60000ED16CB950F8042B51F8043BCCFA52F467
:101A7000D51A05D1002CDAD030BC4FF000007047E9
:101A800029BAB1FA81F111F01801D1F12000844096
:101A9000F2D1CA40CB4012F0FF0213F0FF0330BC7A
:101AA000D01A704701491820ABBEFEE7260002009D
:101AB0007047000080B582B000200190FFE700F081
:101AC0006FFA8DF803009DF8030000F065FB9DF8A8
:101AD00003000D2801D1FFE714E09DF80300302832
:101AE0000FDBFFE79DF8030039280ADCFFE70198C8
:101AF00000EB80019DF8030000EB410030380190BD
:101B0000FFE7DCE70A2000F02FFB0D2000F02CFBA4
:101B1000019802B080BD000080B582B043F211315F
:101B2000C0F200010191002000F0E6F801990420C4
:101B300000F0E2F84CF23801C4F200011020086015
:101B40004EF20012CEF20002202111603821C4F2C0
:101B5000010108604EF20411CEF200014FF0007056
:101B6000086002B080BD00004EF68851CEF2000140
:101B7000086840F47000086040F20001C2F2000101
:101B800042F20040C0F2F4000860704781B00020CB
:101B90008DF803004CF24401C4F20001086820F003
:101BA000100008604CF20000C4F2000000688DF8DC
:101BB00003009DF803000021C4F20101086001B098
:101BC0007047000081B000208DF803004421C4F26A
:101BD0000101086820F0100008600020C4F2010034
:101BE00000688DF803009DF803004CF20001C4F278
:101BF0000001086001B0704780B586B005900020F4
:101C00000190FFE70598D0B1FFE705984CF6CD416C
:101C1000CCF6CC41A0FB0132D20802EB8202A0EB51
:101C2000420040F03000019B5A1C01920DF10A0263
:101C3000D0540598A0FB0110C0080590E2E7FFE72B
:101C40000198012809DBFFE70198411E01910DF180
:101C50000A00405C00F0A0FAF2E706B080BD000088
:101C600080B584B003900D2000F07EFA0A2000F0C9
:101C70007BFA00200290FFE70298132808DCFFE7B8
:101C80002E2000F071FAFFE7029801300290F3E78E
:101C90000D2000F069FA0A2000F066FA039801901E
:101CA000FFE70198007848B1FFE70198007800F05D
:101CB0005BFAFFE7019801300190F2E70D2000F098
:101CC00053FA0A2000F050FA00200090FFE7009835
:101CD000132808DCFFE72E2000F046FAFFE7009803
:101CE00001300090F3E70D2000F03EFA0A2000F0EA
:101CF0003BFA04B080BD000080B592B01190109105
:101D0000119800EB400143F21420C0F2000000EBF8
:101D1000C10149680F91119901EB410100EBC1012B
:101D200089680E91119901EB410100EBC10109692C
:101D30000D91119901EB410100EBC10149690C9131
:101D4000119901EB410100EBC101C9680B91119997
:101D500001EB410150F831000A90002004901098E6
:101D60006A4605A951600DF11F01116043F21D3152
:101D7000C0F2000108AA06ABFEF736FB9DF81F0073
:101D80004538014603912A2824D80399DFE801F059
:101D90001E2222222222222222161A22222222223B
:101DA0002222222222222222222222222222222213
:101DB0001E2222222222222222161A0000208DF820
:101DC0001F000BE001208DF81F0007E003208DF8B5
:101DD0001F0003E000208DF81F00FFE70698400178
:101DE000059900EBC1009DF81F1000EB4100A838D9
:101DF00009909DED080AB8EE401A9FED390A80EE71
:101E0000010A8DED040A0F9A4EF20861C4F20F0127
:101E1000086810430860FFE74EF60820C4F20F0080
:101E200000680F99084202D1FFE700BFF4E70D9860
:101E3000D0F82C050C99884308440D99C1F82C055D
:101E40000E9A0D99D1F820041043C1F820040E9A7F
:101E50000D99D1F81C051043C1F81C050A9A4EF2E1
:101E60001861C4F20F01086810430860FFE74EF6DE
:101E70001820C4F20F0000680A99084202D1FFE757
:101E800000BFF4E70B99002008639DED040A0B994D
:101E9000BCEEC00A81ED090A9DED040ABDEEC01A30
:101EA00011EE101A01EE101AB8EEC11A30EE410A06
:101EB0009FED0C1A20EE010A0B99BCEEC00A81EDD1
:101EC0000A0A09990B9AD1620B99C1F8C80F0B99AC
:101ED00040F201300863012000F032F812B080BDFA
:101EE0008096984A0000804280B584B0002003901C
:101EF00000F06EF8FFF710FE00F0C8F800F0FEF8F2
:101F000043F2D420C0F20000FFF7AAFE472000F001
:101F10002BF94F2000F028F90A2000F025F90D20B8
:101F200000F022F9FFE7FFF7C5FD01900198FFF7E8
:101F300063FE0D2000F030F90A2000F02DF9F2E7E1
:101F400082B0019000200090FFE70098019988423C
:101F500023DAFFE74EF21401CEF200014FF47A606B
:101F600008604EF21001CEF20001012008604EF22E
:101F70001801CEF2000100200860FFE74EF21000C9
:101F8000CEF200000068C003002801D4FFE7F5E7A7
:101F9000FFE7009801300090D7E702B070470000DB
:101FA00081B0FFE74FF21800C4F200000068C006DD
:101FB000002801D5FFE7F5E74FF20000C4F200006A
:101FC00000688DF803009DF8030001B07047000021
:101FD0004EF27C01C4F20F01086840F01000086066
:101FE000086820F004000860086820F00800086015
:101FF000FFE74EF25000C4F20F000068C005002851
:1020000001D4FFE7F5E74EF2B001C4F20F01086812
:1020100020F07F600860086840F44010086008689D
:1020200040F0407008604EF26011C4F20F01602071
:1020300008604EF26412C4F20F02042010600868B7
:1020400040F4000008604EF2C001C4F20F0140F2FB
:102050000310C0F203100860086840F01010086018
:10206000FFE74EF26810C4F20F000068C00708B91D
:10207000FFE7F6E74EF2B001C4F20F01086805224F
:10208000CDF2000210430860704700004EF2086174
:10209000C4F20F01086840F001000860FFE74EF647
:1020A0000820C4F20F000068C00708B9FFE7F6E790
:1020B00048F22041C4F20501086840F03000086091
:1020C00048F22C51C4F20501086820F47F00086032
:1020D000086840F48810086048F21C51C4F20501F9
:1020E000086840F03000086048F22851C4F2050149
:1020F000086820F030000860704700004EF2186158
:10210000C4F20F01086840F008000860FFE74EF6CF
:102110001820C4F20F0000680007002801D4FFE770
:10212000F5E74FF23001C4F20001086808604FF291
:102130002402C4F20002822010604FF22802C4F28E
:1021400000020E2010604FF22C02C4F20002482060
:1021500010604FF6C872C4F200020020106040F216
:10216000013008607047000081B08DF80300FFE780
:102170004FF21800C4F2000000688006002802D563
:10218000FFE700BFF4E79DF803004FF20001C4F23F
:102190000001086001B0704781B08DF80300FFE7CF
:1021A0004FF21800C4F2000000688006002801D534
:1021B000FFE7F5E79DF803004FF20001C4F20001CC
:1021C000086001B07047000023F07F4720F07F4C8B
:1021D00080EA030000F00040ACEB070303F57C53FA
:1021E00003F1FF032DE9804909B44FEA144324EABF
:1021F00003484FEA154B25EA0B4E0FF2042606EB77
:1022000013273E7803FB0667C7F5000707FB06F6B2
:102210004FEAD64606F102064FEA543707FB066C32
:10222000CCF1005C4FEA1C472CEA074C0CFB06F58E
:1022300007FB06F404EB15464FEA961649085FEAD9
:10224000320234BF00204FF000404FEAD13706FB86
:1022500007FC4FEA1C4C0CFB0BF7D21B03FB0CF7E3
:1022600061EB07010CFB0EF7B0EB074072EB174276
:102270000CFB08F734BFA2EB0742B2EB074261EB5D
:1022800017414FEA0C444FEA910706FB07FC4FEA5F
:102290001C4C0CFB0BF7B0EBC74072EB573203FB47
:1022A0000CF734BFA2EBC742B2EBC74261EB573128
:1022B0000CFB0EF7B0EBC70072EB57720CFB08F784
:1022C00034BFA2EBC702B2EBC70261EB57714FEA12
:1022D000816141EA92114FEA826242EA90124FEA2A
:1022E000806004EBCC04039F4FEAD13706FB07FC68
:1022F0004FEA1C4C0CFB0BF7D21B03FB0CF761EBFA
:1023000007010CFB0EF7B0EB074072EB17420CFB1A
:1023100008F734BFA2EB0742B2EB074261EB17416B
:102320004FEA8C5504EB9C244FEA910706FB07FC0F
:102330004FEA1C4C0CFB0BF7B0EBC74072EB57326B
:1023400003FB0CF734BFA2EBC742B2EBC74261EB11
:1023500057310CFB0EF7B0EBC70072EB57720CFB5A
:1023600008F734BFA2EBC702B2EBC70261EB5771AB
:102370004FEA816141EA92114FEA826242EA901289
:102380004FEA806015EB4C2544F100044FEAD13749
:1023900006FB07FC4FEA1C4C0CFB0BF7D21B03FBA4
:1023A0000CF761EB07010CFB0EF7B0EB074072EB8B
:1023B00017420CFB08F734BFA2EB0742B2EB07420F
:1023C00061EB17414FEA813141EA92414FEA823293
:1023D00042EA90424FEA80304FEA0C7615EB1C152A
:1023E00044F1000448EA03434EEA0B484FF0000E64
:1023F000B2EB080C71EB030724BF624639464EEB83
:102400000E0E4FF0000B0018524149414BEB0B0BE5
:10241000B2EB080C71EB03077BF1000B24BF6246A3
:1024200039464EEB0E0E4FF0000B00185241494159
:102430004BEB0B0BB2EB080C71EB03077BF1000BC2
:1024400024BF624639464EEB0E0E51EA020718BF12
:1024500046F0010616EB0E7655F1000254F100012C
:1024600003D5BDE88901BDE80088BDE88901BDE864
:102470000048B619524141EB0101A3F10103704735
:1024800080807F7E7D7C7B7A7978777676757473B1
:10249000727171706F6E6E6D6C6C6B6A6A69686870
:1024A000676666656464636362616160605F5F5E06
:1024B0005E5D5D5C5C5B5B5A5A595958585757567C
:1024C00056555555545453535252525151505050E1
:1024D0004F4F4F4E4E4D4D4D4C4C4C4B4B4B4A4A33
:1024E0004A49494948484847474747464646454577
:1024F00045444444444343434342424242414141B0
:1025000010B546EA06464FEA164646EA42564FEAF4
:10251000D22242EA41524FEAD121A3F57053A3F1EE
:10252000010300F02FF820F0004000F0004700F118
:10253000020CBCF5006F01EB0050114640EA0700A9
:1025400000D210BDBAF1000F0AD01CB503B44FF091
:1025500004004FF004014FF000000FBCBDE8104034
:102560004FF00001BBF1010FB9BF04484FF0FF313C
:102570000348002140EA070010BD00BFFFFFEF7FC6
:102580000000F07F9C46002B30D477002BD04FEA20
:1025900037071CB503B44FF010004FF01001BAF12B
:1025A000000F06D0BCF1000FDCBF40F0080040F087
:1025B00008014FF000000FBCBDE810400BF1010B0B
:1025C000BBF1010F08BF5FEA170722BF12F101023A
:1025D00011F101014FF0004143F1000300F0004010
:1025E00043EA00007047F9D35708D0E746EA0646A9
:1025F0004FEA164613F1400F1FDD13F1200FDFBF26
:1026000016430A46002120335B42BED0C3F12007A7
:1026100046EA06464FEA164602FA07F746EA070672
:1026200022FA03F2C3F1200701FA07F742EA070290
:1026300021FA03F14FF00003A7E746EA020646EA53
:1026400006464FEA164646EA0106BCBF46EA06467B
:10265000360C4FF000034FF000024FF0000194E7FA
:102660002DE9804C70B49A46934691E8380007C82B
:1026700031EA400C48BF34EA430C03D5FFF7A4FD10
:10268000FFF780FFF0BCBDE8008C2DE9804C70B4F2
:102690009A46934691E8380007C831EA400C48BF93
:1026A00034EA430C03D5FFF78FFDFFF729FFF0BC99
:1026B000BDE8008C2DE9804C70B49A46934691E8B1
:1026C000380007C810F0804F08BF13F0804F03D1C7
:1026D00000F01AF8FFF756FFF0BCBDE8008C2DE9BA
:1026E000804C70B49A46934691E8380007C810F0C1
:1026F000804F08BF13F0804F03D100F005F8FFF7BB
:10270000FFFEF0BCBDE8008C20F07F4723F07F4C3B
:1027100080EA030000F0004007EB0C03A3F57C53B4
:10272000A3F1FE0392F0000F00F0B38095F0000FCC
:1027300000F077802DE901494FEA114021EA004875
:102740004FEA144624EA064700FB06FC08FB06F69F
:1027500007FB08F818EB06484CEB164C00FB07F794
:1027600018EB07484CEB17404FEA124B22EA0B4E8E
:102770004FEA154625EA06470BFB06FC0EFB06F65C
:1027800007FB0EFE1EEB064E4CEB164C0BFB07F741
:102790001EEB074E4CEB174B18EB0B0840F10000FB
:1027A00018EB0E0B58EB000840F100008F1A4FF0A9
:1027B00000014FF000063CBFC943661B14BFB5EBD8
:1027C000040C00213CBFC943F61B4FEA174427EA1B
:1027D00004454FEA1C472CEA074C04FB076205FB43
:1027E00007F70CFB05F616EB074642EB174204FB16
:1027F0000CFC16EB0C4642EB1C421BEB060658EB9E
:10280000020241414EEA8E0E46EA9E0601D5BDE81F
:102810000189B619524141EB0101A3F10103BDE861
:1028200001894FEA144524EA05464FEA114721EA97
:10283000074C05FB07F406FB07F70CFB06F111EB51
:10284000074144EB174405FB0CFC11EB0C4144EB36
:102850001C444FEA124722EA074C05FB07F206FB2D
:1028600007F70CFB06F616EB074642EB174205FB93
:102870000CFC16EB0C4642EB1C456A1854F10001A7
:1028800048BF7047B619524141EB0101A3F1010362
:10289000704795F0000F37D04FEA114221EA024607
:1028A0004FEA144724EA074C02FB07F106FB07F73F
:1028B0000CFB06F414EB074441EB174102FB0CFC44
:1028C00014EB0C4441EB1C414FEA154725EA074C39
:1028D00002FB07F506FB07F70CFB06F616EB0746AF
:1028E00045EB174502FB0CFC16EB0C4645EB1C4276
:1028F000121951F1000148BF7047B619524141EB1E
:102900000101A3F1010370474FEA144524EA05468B
:102910004FEA114721EA074C05FB07F106FB07F7D1
:102920000CFB06F212EB074241EB174105FB0CFCD6
:1029300012EB0C4251EB1C414FF0000648BF7047B0
:10294000921841EB0101A3F1010370470000000060
:1029500030B52DED048B81B0B0EE408AF0EE608A88
:102960006A4651EC180B00F013F900989FED329B6A
:102970007E300090002821DC53EC192B51EC180B11
:1029800000F0BEF91AD0002140F608004FF0000018
:10299000044651EC180B00F06DF908EE100A40F6F1
:1029A000080004EA00014FF00000B5EEC08AF1EE25
:1029B00010FA04BF0220FEF704FE2DE00098FF2865
:1029C00030DB002108464FF0000000F4400553ECD6
:1029D000192B51EC180B00F009FB8CBF00240124CB
:1029E0000220FEF7EEFD9FED168A4DB1002C0CBFC4
:1029F0004FF400004FF48000A84218BF9FED118AE9
:102A0000042108464FF00000002C01BFB1EE480A37
:102A100001B0BDEC048B30BDB0EE480A01B0BDEC96
:102A2000048B30BD51EC180B00F024F901B000EE1E
:102A3000100ABDEC048B30BD000000000000000057
:102A40000000807FFFFF7F7F30B540F2FF742DEDE7
:102A5000048BF0EE608A18EE901A85B0B0EE408AD2
:102A60009FED2B9B05468DED008B34EA115147D02D
:102A700053EC192B51EC180B00F042F940D02A46C8
:102A800051EC180B00F02FFB41EC180B18EE900ADC
:102A90008DED008B34EA10501CD053EC192B51EC07
:102AA000180B00F02DF92BD10220FEF78AFD00F063
:102AB00043F810EE901A18EE900A8DED020B8DED92
:102AC000008B61F31E0003909DED020B05B0BDEC81
:102AD000048B30BD0220FEF774FD00F01DF810EEEF
:102AE000901A18EE900A8DED020B8DED008B61F3BC
:102AF0001E0003909DED020B05B0BDEC048B30BDB4
:102B000005B0B0EE480AF0EE680ABDEC048B30BDAB
:102B100000000000000000009FED050B10B553EC15
:102B2000102B51EC100B00F063F941EC100B10BDB1
:102B300000000000000000709FED050B10B553EC85
:102B4000102B51EC100B00F053F941EC100B10BDA1
:102B5000000000000000001010B5044691ED000BCD
:102B6000FFF7F6FE84ED000A10BD10B5044690EDA7
:102B7000000B0846FFF768FF84ED000B10BD3038EE
:102B80000A2801D201207047002070470000000091
:102B900010B582B01446CDE900010023009A2360ED
:102BA000194B21F0004098422ADA024328D0B0F5B0
:102BB000801FA8BF226810DA9FED150B53EC102B75
:102BC0009DED000B51EC100B00F012F9CDE9000166
:102BD0006FF0350221F0004022600F4B6FF31E5161
:102BE00003EB20501044206041F0FF5040F00050B3
:102BF00001909DED000B00BF02B051EC100B10BD19
:102C00009DED000BF8E700000000F07F00000000E1
:102C1000000000000000504302FCFFFF10B5002937
:102C20000AD00878002807D005487844FEF7FCFE53
:102C3000002801D0002010BD0248784410BD0000DB
:102C4000320700002A07000010B500290AD00878D2
:102C5000002807D005487844FEF7E6FE002801D09A
:102C6000002010BD0248784410BD0000220700007B
:102C70001A07000021F0004201F00043A2F1605267
:102C8000B2F5801F28BFD2F17F6C0BD95FEA001C20
:102C900043EAC20242EB507018BF704728BF20F0D1
:102CA00001007047B2F5801FBCBF184670474FEA5D
:102CB000410C1CF5001F02D2084600F0DAB970B5CD
:102CC00000F040F900000089FFF7F6BF4FF0004028
:102CD000A0F580007047000002494FF0000000F0AE
:102CE000D0B900BF0000F87F491058BFC1F1404182
:102CF0005B1058BFC3F140438B42EFF30080704735
:102D000051EA030C17D41CF5801F58BFBCF5801F77
:102D100000F10680994218BF704708BF9042704783
:102D200007D711F5801F58BF13F5801F19D499429A
:102D30007047894270471CF5801F08D5BCF5801F7D
:102D4000F7D58B4218BF704708BF824270474FF4D7
:102D5000001C1CEB410F38BF1CEB430F01D28B4210
:102D6000704770B500F0EEF8922449004FF0005122
:102D70004FF08053FFF7B8BF51EA030C17D41CF58E
:102D8000801F58BFBCF5801F00F10680994218BF14
:102D9000704708BF9042704707D711F5801F58BF92
:102DA00013F5801F19D499427047894270471CF56A
:102DB000801F08D5BCF5801FF7D58B4218BF704720
:102DC00008BF824270474FF4001C1CEB410F38BF14
:102DD0001CEB430F01D28B42704770B500F0B2F884
:102DE000922449004FF000514FF08053FFF77CBF11
:102DF00070B5DFF848C11CEA111E1EBF1CEA13158E
:102E00009EEA0C0F95EA0C0F00F06F8081EA030434
:102E10004EEAD47EAE4421EA4C1123EA4C1341F42D
:102E2000801143F48013AEF17F7EA1FB024CA0FB26
:102E30000365361955EB0C05A1FB034C4CF100035F
:102E4000A0FB021C16EB0C06654153F1000309427E
:102E500018BF46F0010613F4007F0BD14FEA03318F
:102E60004FEA053041EA155140EA165034036FF03D
:102E700003020AE04FEAC3214FEAC52041EA555157
:102E800040EA5650F4026FF0020202EB2E4201EBD0
:102E9000025585EACE710AD05FEA440C18BF24F0CF
:102EA000004450F1000041F1000120EAD47040F2EA
:102EB000FE7C624500D270BDA84214BF4FF0804432
:102EC0004FF04044002E08BF0024BEF1806FA8BF21
:102ED000A1F1C041BDE8704080F2828001F1C041A3
:102EE00001F000414FF0000070470CEA13159EEA14
:102EF0000C0F18BF95EA0C0F06D081EA030E4FF0B5
:102F000000000EF0004170BD00F01CF88900013E89
:102F100000F007B800F009B84FEA430C5FEA5C5CC8
:102F200008D081EA030100F05BB84FEA410C5FEA88
:102F30005C5CF6D102494FF0000070470000FF07CB
:102F40000000F87F0EF1020E2EF0030E5EF8046B07
:102F5000364205D4012A43EB030515F5001F12D8AC
:102F6000012841EB010C1CF5001F0CD80ED14FEAD3
:102F7000D17C0CEB4C0C0CF1020C15F5001F08BFBA
:102F80004CEBD37C04E04FF0080C01E04FEAD37C1B
:102F90000CEB4C0526FA05F606F00706B6F1040C14
:102FA00006D20EEB860CBDE870404CF0010C604779
:102FB000DFE80CF0090B02024FF00041A1F50021FF
:102FC0004FF0000070BD19461046012851EB010476
:102FD00018BFD4F5001484BF002001F0004170BD7B
:102FE0000808A0F500114FEA3101704753EA010CBF
:102FF00017D41CF5801F58BFBCF5801F00F1068058
:103000008B4218BF704708BF8242704707D713F53D
:10301000801F58BF11F5801F19D48B4270479B4207
:1030200070471CF5801F08D5BCF5801FF7D5994265
:1030300018BF704708BF904270474FF4001C1CEB4C
:10304000430F38BF1CEB410F01D2994270470FB4B8
:103050000CBC03BCFFF7C1BEF1EE100A4FF6FF71C6
:10306000C0F2C03120EA010040F04070E1EE100AE9
:103070007047FF2141EAD050C00570474FF0000073
:1030800070470CF00F03092B08BF082000F05F8089
:103090000A2B0BD0082B18BF704708BF1CF0400F3D
:1030A0000AD04FF000004FF0000170471CF0400FB5
:1030B00018BF4FF0004070471CF0100F08D000F010
:1030C0007F4220F0704342EAD3014FEA43707047D9
:1030D00000F0604021F07F4242EA000201F07F40B0
:1030E00040EA727070474FF0FF0C4CF4E06C1CEA41
:1030F00011531CBF9CEA030C9445C2BFDA4201EB9A
:1031000002517047002B0DD0BCF1000F0FD001F021
:103110000041002AA4BF41F0E04141F07F614FF03F
:103120000000704701F000414FF00000704750EA86
:1031300001334FF09B0C18BF4CF0806C7FF4CCAD8A
:103140007047FDF7C7BFFEF743BAFEF7D1BB1CF4CB
:10315000801F11D01CF4E02F03D06FEACC3149005E
:1031600070474FF04050EFF3008222F0704242EA85
:10317000000282F3008870474FF0000070470000A3
:1031800002400000000000A0000000000540000018
:10319000000000C8000000000C4000000000409C3F
:1031A00000000000194000000020BCBE000000002C
:1031B00034400000BFC91B8E00000004B540000071
:1031C000504BCFD06607E2CF010000006C410000F9
:1031D0003E8251AADFEEA73401000000D942000070
:1031E000DCB5A0E23A301F97FFFFFFFFB4450000B7
:1031F000FD25A0C8E9A3C14FFFFFFFFFFF3F00006F
:103200000000008000000000FF3F00000000008080
:1032100000000000010000000100000003000000A9
:1032200000C00040008005401100000002000000C6
:10323000020000000300000000D0004000900540A4
:10324000110000000400000001000000C0000000A8
:1032500000E0004000800540000000110800000070
:10326000010000003000000000F000400080054038
:103270000000110010000000000200000300000028
:103280000000014000100640110000002000000076
:1032900004000000C00000000000014000A0054044
:1032A00000000011400000000020000003000000AA
:1032B0000020014000500640110000008000000086
:1032C00004000000300000000030014000A0054074
:1032D00000001100537461727420747970696E6714
:1032E0002E20596F752073686F756C642073656547
:1032F00020746865206B657973206563686F656409
:10330000206F6E20746865207465726D696E616CE3
:103310000033383430302C372C4E2C320025692CB9
:1033200025692C25632C25690000000088340000E5
:1033300000000020040000003C0200008C3400006B
:103340000800002060020000580200000000000099
:103350000000F07FFFFFFFFFFFFFEF7F1C0000007A
:1033600043000000F8FFFFFF0C0000000E0000000B
:103370000F0000002E0000001001000043000000BC
:10338000F8FFFFFF00404040404040404040414186
:10339000414141404040404040404040404040402A
:1033A00040404040400502020202020202020202C4
:1033B00002020202022020202020202020202002C1
:1033C0000202020202029090909090901010101051
:1033D00010101010101010101010101010101010ED
:1033E0000202020202028888888888880808080881
:1033F000080808080808080808080808080808084D
:103400000202020240000000000000000000000074
:1034100000000000000000000000000000000000AC
:10342000000000000000000000000000000000009C
:10343000000000000000000000000000000000008C
:10344000000000000000000000000000000000007C
:10345000000000000000000000000000000000006C
:10346000000000000000000000000000000000005C
:10347000000000000000000000000000000000004C
:0C34800000000000000000000024F40028
:04000005000002BD38
:00000001FF
